{
  "contractName": "MyNFT",
  "abi": [
    {
      "inputs": [
        {
          "internalType": "address",
          "name": "initialOwner",
          "type": "address"
        }
      ],
      "stateMutability": "nonpayable",
      "type": "constructor"
    },
    {
      "inputs": [
        {
          "internalType": "address",
          "name": "sender",
          "type": "address"
        },
        {
          "internalType": "uint256",
          "name": "tokenId",
          "type": "uint256"
        },
        {
          "internalType": "address",
          "name": "owner",
          "type": "address"
        }
      ],
      "name": "ERC721IncorrectOwner",
      "type": "error"
    },
    {
      "inputs": [
        {
          "internalType": "address",
          "name": "operator",
          "type": "address"
        },
        {
          "internalType": "uint256",
          "name": "tokenId",
          "type": "uint256"
        }
      ],
      "name": "ERC721InsufficientApproval",
      "type": "error"
    },
    {
      "inputs": [
        {
          "internalType": "address",
          "name": "approver",
          "type": "address"
        }
      ],
      "name": "ERC721InvalidApprover",
      "type": "error"
    },
    {
      "inputs": [
        {
          "internalType": "address",
          "name": "operator",
          "type": "address"
        }
      ],
      "name": "ERC721InvalidOperator",
      "type": "error"
    },
    {
      "inputs": [
        {
          "internalType": "address",
          "name": "owner",
          "type": "address"
        }
      ],
      "name": "ERC721InvalidOwner",
      "type": "error"
    },
    {
      "inputs": [
        {
          "internalType": "address",
          "name": "receiver",
          "type": "address"
        }
      ],
      "name": "ERC721InvalidReceiver",
      "type": "error"
    },
    {
      "inputs": [
        {
          "internalType": "address",
          "name": "sender",
          "type": "address"
        }
      ],
      "name": "ERC721InvalidSender",
      "type": "error"
    },
    {
      "inputs": [
        {
          "internalType": "uint256",
          "name": "tokenId",
          "type": "uint256"
        }
      ],
      "name": "ERC721NonexistentToken",
      "type": "error"
    },
    {
      "inputs": [
        {
          "internalType": "address",
          "name": "owner",
          "type": "address"
        }
      ],
      "name": "OwnableInvalidOwner",
      "type": "error"
    },
    {
      "inputs": [
        {
          "internalType": "address",
          "name": "account",
          "type": "address"
        }
      ],
      "name": "OwnableUnauthorizedAccount",
      "type": "error"
    },
    {
      "anonymous": false,
      "inputs": [
        {
          "indexed": true,
          "internalType": "address",
          "name": "owner",
          "type": "address"
        },
        {
          "indexed": true,
          "internalType": "address",
          "name": "approved",
          "type": "address"
        },
        {
          "indexed": true,
          "internalType": "uint256",
          "name": "tokenId",
          "type": "uint256"
        }
      ],
      "name": "Approval",
      "type": "event"
    },
    {
      "anonymous": false,
      "inputs": [
        {
          "indexed": true,
          "internalType": "address",
          "name": "owner",
          "type": "address"
        },
        {
          "indexed": true,
          "internalType": "address",
          "name": "operator",
          "type": "address"
        },
        {
          "indexed": false,
          "internalType": "bool",
          "name": "approved",
          "type": "bool"
        }
      ],
      "name": "ApprovalForAll",
      "type": "event"
    },
    {
      "anonymous": false,
      "inputs": [
        {
          "indexed": false,
          "internalType": "uint256",
          "name": "_fromTokenId",
          "type": "uint256"
        },
        {
          "indexed": false,
          "internalType": "uint256",
          "name": "_toTokenId",
          "type": "uint256"
        }
      ],
      "name": "BatchMetadataUpdate",
      "type": "event"
    },
    {
      "anonymous": false,
      "inputs": [
        {
          "indexed": false,
          "internalType": "uint256",
          "name": "_tokenId",
          "type": "uint256"
        }
      ],
      "name": "MetadataUpdate",
      "type": "event"
    },
    {
      "anonymous": false,
      "inputs": [
        {
          "indexed": true,
          "internalType": "address",
          "name": "previousOwner",
          "type": "address"
        },
        {
          "indexed": true,
          "internalType": "address",
          "name": "newOwner",
          "type": "address"
        }
      ],
      "name": "OwnershipTransferred",
      "type": "event"
    },
    {
      "anonymous": false,
      "inputs": [
        {
          "indexed": true,
          "internalType": "address",
          "name": "from",
          "type": "address"
        },
        {
          "indexed": true,
          "internalType": "address",
          "name": "to",
          "type": "address"
        },
        {
          "indexed": true,
          "internalType": "uint256",
          "name": "tokenId",
          "type": "uint256"
        }
      ],
      "name": "Transfer",
      "type": "event"
    },
    {
      "inputs": [
        {
          "internalType": "address",
          "name": "to",
          "type": "address"
        },
        {
          "internalType": "uint256",
          "name": "tokenId",
          "type": "uint256"
        }
      ],
      "name": "approve",
      "outputs": [],
      "stateMutability": "nonpayable",
      "type": "function"
    },
    {
      "inputs": [
        {
          "internalType": "address",
          "name": "owner",
          "type": "address"
        }
      ],
      "name": "balanceOf",
      "outputs": [
        {
          "internalType": "uint256",
          "name": "",
          "type": "uint256"
        }
      ],
      "stateMutability": "view",
      "type": "function",
      "constant": true
    },
    {
      "inputs": [
        {
          "internalType": "uint256",
          "name": "tokenId",
          "type": "uint256"
        }
      ],
      "name": "getApproved",
      "outputs": [
        {
          "internalType": "address",
          "name": "",
          "type": "address"
        }
      ],
      "stateMutability": "view",
      "type": "function",
      "constant": true
    },
    {
      "inputs": [
        {
          "internalType": "address",
          "name": "owner",
          "type": "address"
        },
        {
          "internalType": "address",
          "name": "operator",
          "type": "address"
        }
      ],
      "name": "isApprovedForAll",
      "outputs": [
        {
          "internalType": "bool",
          "name": "",
          "type": "bool"
        }
      ],
      "stateMutability": "view",
      "type": "function",
      "constant": true
    },
    {
      "inputs": [],
      "name": "name",
      "outputs": [
        {
          "internalType": "string",
          "name": "",
          "type": "string"
        }
      ],
      "stateMutability": "view",
      "type": "function",
      "constant": true
    },
    {
      "inputs": [],
      "name": "nextTokenId",
      "outputs": [
        {
          "internalType": "uint256",
          "name": "",
          "type": "uint256"
        }
      ],
      "stateMutability": "view",
      "type": "function",
      "constant": true
    },
    {
      "inputs": [],
      "name": "owner",
      "outputs": [
        {
          "internalType": "address",
          "name": "",
          "type": "address"
        }
      ],
      "stateMutability": "view",
      "type": "function",
      "constant": true
    },
    {
      "inputs": [
        {
          "internalType": "uint256",
          "name": "tokenId",
          "type": "uint256"
        }
      ],
      "name": "ownerOf",
      "outputs": [
        {
          "internalType": "address",
          "name": "",
          "type": "address"
        }
      ],
      "stateMutability": "view",
      "type": "function",
      "constant": true
    },
    {
      "inputs": [],
      "name": "renounceOwnership",
      "outputs": [],
      "stateMutability": "nonpayable",
      "type": "function"
    },
    {
      "inputs": [
        {
          "internalType": "address",
          "name": "from",
          "type": "address"
        },
        {
          "internalType": "address",
          "name": "to",
          "type": "address"
        },
        {
          "internalType": "uint256",
          "name": "tokenId",
          "type": "uint256"
        }
      ],
      "name": "safeTransferFrom",
      "outputs": [],
      "stateMutability": "nonpayable",
      "type": "function"
    },
    {
      "inputs": [
        {
          "internalType": "address",
          "name": "from",
          "type": "address"
        },
        {
          "internalType": "address",
          "name": "to",
          "type": "address"
        },
        {
          "internalType": "uint256",
          "name": "tokenId",
          "type": "uint256"
        },
        {
          "internalType": "bytes",
          "name": "data",
          "type": "bytes"
        }
      ],
      "name": "safeTransferFrom",
      "outputs": [],
      "stateMutability": "nonpayable",
      "type": "function"
    },
    {
      "inputs": [
        {
          "internalType": "address",
          "name": "operator",
          "type": "address"
        },
        {
          "internalType": "bool",
          "name": "approved",
          "type": "bool"
        }
      ],
      "name": "setApprovalForAll",
      "outputs": [],
      "stateMutability": "nonpayable",
      "type": "function"
    },
    {
      "inputs": [
        {
          "internalType": "bytes4",
          "name": "interfaceId",
          "type": "bytes4"
        }
      ],
      "name": "supportsInterface",
      "outputs": [
        {
          "internalType": "bool",
          "name": "",
          "type": "bool"
        }
      ],
      "stateMutability": "view",
      "type": "function",
      "constant": true
    },
    {
      "inputs": [],
      "name": "symbol",
      "outputs": [
        {
          "internalType": "string",
          "name": "",
          "type": "string"
        }
      ],
      "stateMutability": "view",
      "type": "function",
      "constant": true
    },
    {
      "inputs": [
        {
          "internalType": "address",
          "name": "from",
          "type": "address"
        },
        {
          "internalType": "address",
          "name": "to",
          "type": "address"
        },
        {
          "internalType": "uint256",
          "name": "tokenId",
          "type": "uint256"
        }
      ],
      "name": "transferFrom",
      "outputs": [],
      "stateMutability": "nonpayable",
      "type": "function"
    },
    {
      "inputs": [
        {
          "internalType": "address",
          "name": "newOwner",
          "type": "address"
        }
      ],
      "name": "transferOwnership",
      "outputs": [],
      "stateMutability": "nonpayable",
      "type": "function"
    },
    {
      "inputs": [
        {
          "internalType": "address",
          "name": "recipient",
          "type": "address"
        },
        {
          "internalType": "string",
          "name": "_tokenURI",
          "type": "string"
        }
      ],
      "name": "mint",
      "outputs": [],
      "stateMutability": "nonpayable",
      "type": "function"
    },
    {
      "inputs": [
        {
          "internalType": "uint256",
          "name": "tokenId",
          "type": "uint256"
        }
      ],
      "name": "tokenExists",
      "outputs": [
        {
          "internalType": "bool",
          "name": "",
          "type": "bool"
        }
      ],
      "stateMutability": "view",
      "type": "function",
      "constant": true
    },
    {
      "inputs": [
        {
          "internalType": "uint256",
          "name": "tokenId",
          "type": "uint256"
        }
      ],
      "name": "tokenURI",
      "outputs": [
        {
          "internalType": "string",
          "name": "",
          "type": "string"
        }
      ],
      "stateMutability": "view",
      "type": "function",
      "constant": true
    }
  ],
  "bytecode": "0x608060405234801562000010575f80fd5b5060405162002da238038062002da283398181016040528101906200003691906200027c565b806040518060400160405280600581526020017f4d794e46540000000000000000000000000000000000000000000000000000008152506040518060400160405280600481526020017f4d4e465400000000000000000000000000000000000000000000000000000000815250815f9081620000b3919062000510565b508060019081620000c5919062000510565b5050505f73ffffffffffffffffffffffffffffffffffffffff168173ffffffffffffffffffffffffffffffffffffffff16036200013b575f6040517f1e4fbdf700000000000000000000000000000000000000000000000000000000815260040162000132919062000605565b60405180910390fd5b6200014c816200015460201b60201c565b505062000620565b5f60075f9054906101000a900473ffffffffffffffffffffffffffffffffffffffff1690508160075f6101000a81548173ffffffffffffffffffffffffffffffffffffffff021916908373ffffffffffffffffffffffffffffffffffffffff1602179055508173ffffffffffffffffffffffffffffffffffffffff168173ffffffffffffffffffffffffffffffffffffffff167f8be0079c531659141344cd1fd0a4f28419497f9722a3daafe3b4186f6b6457e060405160405180910390a35050565b5f80fd5b5f73ffffffffffffffffffffffffffffffffffffffff82169050919050565b5f62000246826200021b565b9050919050565b62000258816200023a565b811462000263575f80fd5b50565b5f8151905062000276816200024d565b92915050565b5f6020828403121562000294576200029362000217565b5b5f620002a38482850162000266565b91505092915050565b5f81519050919050565b7f4e487b71000000000000000000000000000000000000000000000000000000005f52604160045260245ffd5b7f4e487b71000000000000000000000000000000000000000000000000000000005f52602260045260245ffd5b5f60028204905060018216806200032857607f821691505b6020821081036200033e576200033d620002e3565b5b50919050565b5f819050815f5260205f209050919050565b5f6020601f8301049050919050565b5f82821b905092915050565b5f60088302620003a27fffffffffffffffffffffffffffffffffffffffffffffffffffffffffffffffff8262000365565b620003ae868362000365565b95508019841693508086168417925050509392505050565b5f819050919050565b5f819050919050565b5f620003f8620003f2620003ec84620003c6565b620003cf565b620003c6565b9050919050565b5f819050919050565b6200041383620003d8565b6200042b6200042282620003ff565b84845462000371565b825550505050565b5f90565b6200044162000433565b6200044e81848462000408565b505050565b5b818110156200047557620004695f8262000437565b60018101905062000454565b5050565b601f821115620004c4576200048e8162000344565b620004998462000356565b81016020851015620004a9578190505b620004c1620004b88562000356565b83018262000453565b50505b505050565b5f82821c905092915050565b5f620004e65f1984600802620004c9565b1980831691505092915050565b5f620005008383620004d5565b9150826002028217905092915050565b6200051b82620002ac565b67ffffffffffffffff811115620005375762000536620002b6565b5b62000543825462000310565b6200055082828562000479565b5f60209050601f83116001811462000586575f841562000571578287015190505b6200057d8582620004f3565b865550620005ec565b601f198416620005968662000344565b5f5b82811015620005bf5784890151825560018201915060208501945060208101905062000598565b86831015620005df5784890151620005db601f891682620004d5565b8355505b6001600288020188555050505b505050505050565b620005ff816200023a565b82525050565b5f6020820190506200061a5f830184620005f4565b92915050565b612774806200062e5f395ff3fe608060405234801561000f575f80fd5b506004361061011e575f3560e01c8063715018a6116100ab578063b88d4fde1161006f578063b88d4fde14610304578063c87b56dd14610320578063d0def52114610350578063e985e9c51461036c578063f2fde38b1461039c5761011e565b8063715018a61461028457806375794a3c1461028e5780638da5cb5b146102ac57806395d89b41146102ca578063a22cb465146102e85761011e565b8063095ea7b3116100f2578063095ea7b3146101d057806323b872dd146101ec57806342842e0e146102085780636352211e1461022457806370a08231146102545761011e565b8062923f9e1461012257806301ffc9a71461015257806306fdde0314610182578063081812fc146101a0575b5f80fd5b61013c60048036038101906101379190611b64565b6103b8565b6040516101499190611ba9565b60405180910390f35b61016c60048036038101906101679190611c17565b610471565b6040516101799190611ba9565b60405180910390f35b61018a6104d1565b6040516101979190611ccc565b60405180910390f35b6101ba60048036038101906101b59190611b64565b610560565b6040516101c79190611d2b565b60405180910390f35b6101ea60048036038101906101e59190611d6e565b61057b565b005b61020660048036038101906102019190611dac565b610591565b005b610222600480360381019061021d9190611dac565b610690565b005b61023e60048036038101906102399190611b64565b6106af565b60405161024b9190611d2b565b60405180910390f35b61026e60048036038101906102699190611dfc565b6106c0565b60405161027b9190611e36565b60405180910390f35b61028c610776565b005b610296610789565b6040516102a39190611e36565b60405180910390f35b6102b461078f565b6040516102c19190611d2b565b60405180910390f35b6102d26107b7565b6040516102df9190611ccc565b60405180910390f35b61030260048036038101906102fd9190611e79565b610847565b005b61031e60048036038101906103199190611fe3565b61085d565b005b61033a60048036038101906103359190611b64565b61087a565b6040516103479190611ccc565b60405180910390f35b61036a60048036038101906103659190612101565b6108d4565b005b6103866004803603810190610381919061215b565b610912565b6040516103939190611ba9565b60405180910390f35b6103b660048036038101906103b19190611dfc565b6109a0565b005b5f3073ffffffffffffffffffffffffffffffffffffffff16636352211e836040518263ffffffff1660e01b81526004016103f29190611e36565b602060405180830381865afa92505050801561042c57506040513d601f19601f8201168201806040525081019061042991906121ad565b60015b610438575f905061046c565b5f73ffffffffffffffffffffffffffffffffffffffff168173ffffffffffffffffffffffffffffffffffffffff1614159150505b919050565b5f634906490660e01b7bffffffffffffffffffffffffffffffffffffffffffffffffffffffff1916827bffffffffffffffffffffffffffffffffffffffffffffffffffffffff191614806104ca57506104c982610a24565b5b9050919050565b60605f80546104df90612205565b80601f016020809104026020016040519081016040528092919081815260200182805461050b90612205565b80156105565780601f1061052d57610100808354040283529160200191610556565b820191905f5260205f20905b81548152906001019060200180831161053957829003601f168201915b5050505050905090565b5f61056a82610b05565b5061057482610b8b565b9050919050565b61058d8282610588610bc4565b610bcb565b5050565b5f73ffffffffffffffffffffffffffffffffffffffff168273ffffffffffffffffffffffffffffffffffffffff1603610601575f6040517f64a0ae920000000000000000000000000000000000000000000000000000000081526004016105f89190611d2b565b60405180910390fd5b5f610614838361060f610bc4565b610bdd565b90508373ffffffffffffffffffffffffffffffffffffffff168173ffffffffffffffffffffffffffffffffffffffff161461068a578382826040517f64283d7b00000000000000000000000000000000000000000000000000000000815260040161068193929190612235565b60405180910390fd5b50505050565b6106aa83838360405180602001604052805f81525061085d565b505050565b5f6106b982610b05565b9050919050565b5f8073ffffffffffffffffffffffffffffffffffffffff168273ffffffffffffffffffffffffffffffffffffffff1603610731575f6040517f89c62b640000000000000000000000000000000000000000000000000000000081526004016107289190611d2b565b60405180910390fd5b60035f8373ffffffffffffffffffffffffffffffffffffffff1673ffffffffffffffffffffffffffffffffffffffff1681526020019081526020015f20549050919050565b61077e610de8565b6107875f610e6f565b565b60085481565b5f60075f9054906101000a900473ffffffffffffffffffffffffffffffffffffffff16905090565b6060600180546107c690612205565b80601f01602080910402602001604051908101604052809291908181526020018280546107f290612205565b801561083d5780601f106108145761010080835404028352916020019161083d565b820191905f5260205f20905b81548152906001019060200180831161082057829003601f168201915b5050505050905090565b610859610852610bc4565b8383610f32565b5050565b610868848484610591565b6108748484848461109b565b50505050565b6060610885826103b8565b6108c4576040517f08c379a00000000000000000000000000000000000000000000000000000000081526004016108bb906122b4565b60405180910390fd5b6108cd8261124d565b9050919050565b6108dc610de8565b5f600854905060085f8154809291906108f4906122ff565b91905055506109038382611358565b61090d818361144b565b505050565b5f60055f8473ffffffffffffffffffffffffffffffffffffffff1673ffffffffffffffffffffffffffffffffffffffff1681526020019081526020015f205f8373ffffffffffffffffffffffffffffffffffffffff1673ffffffffffffffffffffffffffffffffffffffff1681526020019081526020015f205f9054906101000a900460ff16905092915050565b6109a8610de8565b5f73ffffffffffffffffffffffffffffffffffffffff168173ffffffffffffffffffffffffffffffffffffffff1603610a18575f6040517f1e4fbdf7000000000000000000000000000000000000000000000000000000008152600401610a0f9190611d2b565b60405180910390fd5b610a2181610e6f565b50565b5f7f80ac58cd000000000000000000000000000000000000000000000000000000007bffffffffffffffffffffffffffffffffffffffffffffffffffffffff1916827bffffffffffffffffffffffffffffffffffffffffffffffffffffffff19161480610aee57507f5b5e139f000000000000000000000000000000000000000000000000000000007bffffffffffffffffffffffffffffffffffffffffffffffffffffffff1916827bffffffffffffffffffffffffffffffffffffffffffffffffffffffff1916145b80610afe5750610afd826114a5565b5b9050919050565b5f80610b108361150e565b90505f73ffffffffffffffffffffffffffffffffffffffff168173ffffffffffffffffffffffffffffffffffffffff1603610b8257826040517f7e273289000000000000000000000000000000000000000000000000000000008152600401610b799190611e36565b60405180910390fd5b80915050919050565b5f60045f8381526020019081526020015f205f9054906101000a900473ffffffffffffffffffffffffffffffffffffffff169050919050565b5f33905090565b610bd88383836001611547565b505050565b5f80610be88461150e565b90505f73ffffffffffffffffffffffffffffffffffffffff168373ffffffffffffffffffffffffffffffffffffffff1614610c2957610c28818486611706565b5b5f73ffffffffffffffffffffffffffffffffffffffff168173ffffffffffffffffffffffffffffffffffffffff1614610cb457610c685f855f80611547565b600160035f8373ffffffffffffffffffffffffffffffffffffffff1673ffffffffffffffffffffffffffffffffffffffff1681526020019081526020015f205f82825403925050819055505b5f73ffffffffffffffffffffffffffffffffffffffff168573ffffffffffffffffffffffffffffffffffffffff1614610d3357600160035f8773ffffffffffffffffffffffffffffffffffffffff1673ffffffffffffffffffffffffffffffffffffffff1681526020019081526020015f205f82825401925050819055505b8460025f8681526020019081526020015f205f6101000a81548173ffffffffffffffffffffffffffffffffffffffff021916908373ffffffffffffffffffffffffffffffffffffffff160217905550838573ffffffffffffffffffffffffffffffffffffffff168273ffffffffffffffffffffffffffffffffffffffff167fddf252ad1be2c89b69c2b068fc378daa952ba7f163c4a11628f55a4df523b3ef60405160405180910390a4809150509392505050565b610df0610bc4565b73ffffffffffffffffffffffffffffffffffffffff16610e0e61078f565b73ffffffffffffffffffffffffffffffffffffffff1614610e6d57610e31610bc4565b6040517f118cdaa7000000000000000000000000000000000000000000000000000000008152600401610e649190611d2b565b60405180910390fd5b565b5f60075f9054906101000a900473ffffffffffffffffffffffffffffffffffffffff1690508160075f6101000a81548173ffffffffffffffffffffffffffffffffffffffff021916908373ffffffffffffffffffffffffffffffffffffffff1602179055508173ffffffffffffffffffffffffffffffffffffffff168173ffffffffffffffffffffffffffffffffffffffff167f8be0079c531659141344cd1fd0a4f28419497f9722a3daafe3b4186f6b6457e060405160405180910390a35050565b5f73ffffffffffffffffffffffffffffffffffffffff168273ffffffffffffffffffffffffffffffffffffffff1603610fa257816040517f5b08ba18000000000000000000000000000000000000000000000000000000008152600401610f999190611d2b565b60405180910390fd5b8060055f8573ffffffffffffffffffffffffffffffffffffffff1673ffffffffffffffffffffffffffffffffffffffff1681526020019081526020015f205f8473ffffffffffffffffffffffffffffffffffffffff1673ffffffffffffffffffffffffffffffffffffffff1681526020019081526020015f205f6101000a81548160ff0219169083151502179055508173ffffffffffffffffffffffffffffffffffffffff168373ffffffffffffffffffffffffffffffffffffffff167f17307eab39ab6107e8899845ad3d59bd9653f200f220920489ca2b5937696c318360405161108e9190611ba9565b60405180910390a3505050565b5f8373ffffffffffffffffffffffffffffffffffffffff163b1115611247578273ffffffffffffffffffffffffffffffffffffffff1663150b7a026110de610bc4565b8685856040518563ffffffff1660e01b81526004016111009493929190612398565b6020604051808303815f875af192505050801561113b57506040513d601f19601f8201168201806040525081019061113891906123f6565b60015b6111bc573d805f8114611169576040519150601f19603f3d011682016040523d82523d5f602084013e61116e565b606091505b505f8151036111b457836040517f64a0ae920000000000000000000000000000000000000000000000000000000081526004016111ab9190611d2b565b60405180910390fd5b805181602001fd5b63150b7a0260e01b7bffffffffffffffffffffffffffffffffffffffffffffffffffffffff1916817bffffffffffffffffffffffffffffffffffffffffffffffffffffffff19161461124557836040517f64a0ae9200000000000000000000000000000000000000000000000000000000815260040161123c9190611d2b565b60405180910390fd5b505b50505050565b606061125882610b05565b505f60065f8481526020019081526020015f20805461127690612205565b80601f01602080910402602001604051908101604052809291908181526020018280546112a290612205565b80156112ed5780601f106112c4576101008083540402835291602001916112ed565b820191905f5260205f20905b8154815290600101906020018083116112d057829003601f168201915b505050505090505f6112fd6117c9565b90505f815103611311578192505050611353565b5f8251111561134557808260405160200161132d92919061245b565b60405160208183030381529060405292505050611353565b61134e846117df565b925050505b919050565b5f73ffffffffffffffffffffffffffffffffffffffff168273ffffffffffffffffffffffffffffffffffffffff16036113c8575f6040517f64a0ae920000000000000000000000000000000000000000000000000000000081526004016113bf9190611d2b565b60405180910390fd5b5f6113d483835f610bdd565b90505f73ffffffffffffffffffffffffffffffffffffffff168173ffffffffffffffffffffffffffffffffffffffff1614611446575f6040517f73c6ac6e00000000000000000000000000000000000000000000000000000000815260040161143d9190611d2b565b60405180910390fd5b505050565b8060065f8481526020019081526020015f209081611469919061261b565b507ff8e1a15aba9398e019f0b49df1a4fde98ee17ae345cb5f6b5e2c27f5033e8ce7826040516114999190611e36565b60405180910390a15050565b5f7f01ffc9a7000000000000000000000000000000000000000000000000000000007bffffffffffffffffffffffffffffffffffffffffffffffffffffffff1916827bffffffffffffffffffffffffffffffffffffffffffffffffffffffff1916149050919050565b5f60025f8381526020019081526020015f205f9054906101000a900473ffffffffffffffffffffffffffffffffffffffff169050919050565b808061157f57505f73ffffffffffffffffffffffffffffffffffffffff168273ffffffffffffffffffffffffffffffffffffffff1614155b156116b1575f61158e84610b05565b90505f73ffffffffffffffffffffffffffffffffffffffff168373ffffffffffffffffffffffffffffffffffffffff16141580156115f857508273ffffffffffffffffffffffffffffffffffffffff168173ffffffffffffffffffffffffffffffffffffffff1614155b801561160b57506116098184610912565b155b1561164d57826040517fa9fbf51f0000000000000000000000000000000000000000000000000000000081526004016116449190611d2b565b60405180910390fd5b81156116af57838573ffffffffffffffffffffffffffffffffffffffff168273ffffffffffffffffffffffffffffffffffffffff167f8c5be1e5ebec7d5bd14f71427d1e84f3dd0314c0f7b2291e5b200ac8c7c3b92560405160405180910390a45b505b8360045f8581526020019081526020015f205f6101000a81548173ffffffffffffffffffffffffffffffffffffffff021916908373ffffffffffffffffffffffffffffffffffffffff16021790555050505050565b611711838383611845565b6117c4575f73ffffffffffffffffffffffffffffffffffffffff168373ffffffffffffffffffffffffffffffffffffffff160361178557806040517f7e27328900000000000000000000000000000000000000000000000000000000815260040161177c9190611e36565b60405180910390fd5b81816040517f177e802f0000000000000000000000000000000000000000000000000000000081526004016117bb9291906126ea565b60405180910390fd5b505050565b606060405180602001604052805f815250905090565b60606117ea82610b05565b505f6117f46117c9565b90505f8151116118125760405180602001604052805f81525061183d565b8061181c84611905565b60405160200161182d92919061245b565b6040516020818303038152906040525b915050919050565b5f8073ffffffffffffffffffffffffffffffffffffffff168373ffffffffffffffffffffffffffffffffffffffff16141580156118fc57508273ffffffffffffffffffffffffffffffffffffffff168473ffffffffffffffffffffffffffffffffffffffff1614806118bd57506118bc8484610912565b5b806118fb57508273ffffffffffffffffffffffffffffffffffffffff166118e383610b8b565b73ffffffffffffffffffffffffffffffffffffffff16145b5b90509392505050565b60605f6001611913846119cf565b0190505f8167ffffffffffffffff81111561193157611930611ebf565b5b6040519080825280601f01601f1916602001820160405280156119635781602001600182028036833780820191505090505b5090505f82602001820190505b6001156119c4578080600190039150507f3031323334353637383961626364656600000000000000000000000000000000600a86061a8153600a85816119b9576119b8612711565b5b0494505f8503611970575b819350505050919050565b5f805f90507a184f03e93ff9f4daa797ed6e38ed64bf6a1f0100000000000000008310611a2b577a184f03e93ff9f4daa797ed6e38ed64bf6a1f0100000000000000008381611a2157611a20612711565b5b0492506040810190505b6d04ee2d6d415b85acef81000000008310611a68576d04ee2d6d415b85acef81000000008381611a5e57611a5d612711565b5b0492506020810190505b662386f26fc100008310611a9757662386f26fc100008381611a8d57611a8c612711565b5b0492506010810190505b6305f5e1008310611ac0576305f5e1008381611ab657611ab5612711565b5b0492506008810190505b6127108310611ae5576127108381611adb57611ada612711565b5b0492506004810190505b60648310611b085760648381611afe57611afd612711565b5b0492506002810190505b600a8310611b17576001810190505b80915050919050565b5f604051905090565b5f80fd5b5f80fd5b5f819050919050565b611b4381611b31565b8114611b4d575f80fd5b50565b5f81359050611b5e81611b3a565b92915050565b5f60208284031215611b7957611b78611b29565b5b5f611b8684828501611b50565b91505092915050565b5f8115159050919050565b611ba381611b8f565b82525050565b5f602082019050611bbc5f830184611b9a565b92915050565b5f7fffffffff0000000000000000000000000000000000000000000000000000000082169050919050565b611bf681611bc2565b8114611c00575f80fd5b50565b5f81359050611c1181611bed565b92915050565b5f60208284031215611c2c57611c2b611b29565b5b5f611c3984828501611c03565b91505092915050565b5f81519050919050565b5f82825260208201905092915050565b5f5b83811015611c79578082015181840152602081019050611c5e565b5f8484015250505050565b5f601f19601f8301169050919050565b5f611c9e82611c42565b611ca88185611c4c565b9350611cb8818560208601611c5c565b611cc181611c84565b840191505092915050565b5f6020820190508181035f830152611ce48184611c94565b905092915050565b5f73ffffffffffffffffffffffffffffffffffffffff82169050919050565b5f611d1582611cec565b9050919050565b611d2581611d0b565b82525050565b5f602082019050611d3e5f830184611d1c565b92915050565b611d4d81611d0b565b8114611d57575f80fd5b50565b5f81359050611d6881611d44565b92915050565b5f8060408385031215611d8457611d83611b29565b5b5f611d9185828601611d5a565b9250506020611da285828601611b50565b9150509250929050565b5f805f60608486031215611dc357611dc2611b29565b5b5f611dd086828701611d5a565b9350506020611de186828701611d5a565b9250506040611df286828701611b50565b9150509250925092565b5f60208284031215611e1157611e10611b29565b5b5f611e1e84828501611d5a565b91505092915050565b611e3081611b31565b82525050565b5f602082019050611e495f830184611e27565b92915050565b611e5881611b8f565b8114611e62575f80fd5b50565b5f81359050611e7381611e4f565b92915050565b5f8060408385031215611e8f57611e8e611b29565b5b5f611e9c85828601611d5a565b9250506020611ead85828601611e65565b9150509250929050565b5f80fd5b5f80fd5b7f4e487b71000000000000000000000000000000000000000000000000000000005f52604160045260245ffd5b611ef582611c84565b810181811067ffffffffffffffff82111715611f1457611f13611ebf565b5b80604052505050565b5f611f26611b20565b9050611f328282611eec565b919050565b5f67ffffffffffffffff821115611f5157611f50611ebf565b5b611f5a82611c84565b9050602081019050919050565b828183375f83830152505050565b5f611f87611f8284611f37565b611f1d565b905082815260208101848484011115611fa357611fa2611ebb565b5b611fae848285611f67565b509392505050565b5f82601f830112611fca57611fc9611eb7565b5b8135611fda848260208601611f75565b91505092915050565b5f805f8060808587031215611ffb57611ffa611b29565b5b5f61200887828801611d5a565b945050602061201987828801611d5a565b935050604061202a87828801611b50565b925050606085013567ffffffffffffffff81111561204b5761204a611b2d565b5b61205787828801611fb6565b91505092959194509250565b5f67ffffffffffffffff82111561207d5761207c611ebf565b5b61208682611c84565b9050602081019050919050565b5f6120a56120a084612063565b611f1d565b9050828152602081018484840111156120c1576120c0611ebb565b5b6120cc848285611f67565b509392505050565b5f82601f8301126120e8576120e7611eb7565b5b81356120f8848260208601612093565b91505092915050565b5f806040838503121561211757612116611b29565b5b5f61212485828601611d5a565b925050602083013567ffffffffffffffff81111561214557612144611b2d565b5b612151858286016120d4565b9150509250929050565b5f806040838503121561217157612170611b29565b5b5f61217e85828601611d5a565b925050602061218f85828601611d5a565b9150509250929050565b5f815190506121a781611d44565b92915050565b5f602082840312156121c2576121c1611b29565b5b5f6121cf84828501612199565b91505092915050565b7f4e487b71000000000000000000000000000000000000000000000000000000005f52602260045260245ffd5b5f600282049050600182168061221c57607f821691505b60208210810361222f5761222e6121d8565b5b50919050565b5f6060820190506122485f830186611d1c565b6122556020830185611e27565b6122626040830184611d1c565b949350505050565b7f546f6b656e20646f6573206e6f742065786973742e00000000000000000000005f82015250565b5f61229e601583611c4c565b91506122a98261226a565b602082019050919050565b5f6020820190508181035f8301526122cb81612292565b9050919050565b7f4e487b71000000000000000000000000000000000000000000000000000000005f52601160045260245ffd5b5f61230982611b31565b91507fffffffffffffffffffffffffffffffffffffffffffffffffffffffffffffffff820361233b5761233a6122d2565b5b600182019050919050565b5f81519050919050565b5f82825260208201905092915050565b5f61236a82612346565b6123748185612350565b9350612384818560208601611c5c565b61238d81611c84565b840191505092915050565b5f6080820190506123ab5f830187611d1c565b6123b86020830186611d1c565b6123c56040830185611e27565b81810360608301526123d78184612360565b905095945050505050565b5f815190506123f081611bed565b92915050565b5f6020828403121561240b5761240a611b29565b5b5f612418848285016123e2565b91505092915050565b5f81905092915050565b5f61243582611c42565b61243f8185612421565b935061244f818560208601611c5c565b80840191505092915050565b5f612466828561242b565b9150612472828461242b565b91508190509392505050565b5f819050815f5260205f209050919050565b5f6020601f8301049050919050565b5f82821b905092915050565b5f600883026124da7fffffffffffffffffffffffffffffffffffffffffffffffffffffffffffffffff8261249f565b6124e4868361249f565b95508019841693508086168417925050509392505050565b5f819050919050565b5f61251f61251a61251584611b31565b6124fc565b611b31565b9050919050565b5f819050919050565b61253883612505565b61254c61254482612526565b8484546124ab565b825550505050565b5f90565b612560612554565b61256b81848461252f565b505050565b5b8181101561258e576125835f82612558565b600181019050612571565b5050565b601f8211156125d3576125a48161247e565b6125ad84612490565b810160208510156125bc578190505b6125d06125c885612490565b830182612570565b50505b505050565b5f82821c905092915050565b5f6125f35f19846008026125d8565b1980831691505092915050565b5f61260b83836125e4565b9150826002028217905092915050565b61262482611c42565b67ffffffffffffffff81111561263d5761263c611ebf565b5b6126478254612205565b612652828285612592565b5f60209050601f831160018114612683575f8415612671578287015190505b61267b8582612600565b8655506126e2565b601f1984166126918661247e565b5f5b828110156126b857848901518255600182019150602085019450602081019050612693565b868310156126d557848901516126d1601f8916826125e4565b8355505b6001600288020188555050505b505050505050565b5f6040820190506126fd5f830185611d1c565b61270a6020830184611e27565b9392505050565b7f4e487b71000000000000000000000000000000000000000000000000000000005f52601260045260245ffdfea26469706673582212205b92a9fb9e2480216b7b055ffcc7626eebbd1e4b056a32648c32ccea6d32c36d64736f6c63430008150033",
  "immutableReferences": {},
  "source": "// SPDX-License-Identifier: MIT\r\npragma solidity ^0.8.20;\r\n\r\nimport \"@openzeppelin/contracts/token/ERC721/extensions/ERC721URIStorage.sol\";\r\nimport \"@openzeppelin/contracts/access/Ownable.sol\";\r\n\r\ncontract MyNFT is ERC721URIStorage, Ownable {\r\n    uint256 public nextTokenId;\r\n\r\n    // ERC721  Ownable  \r\n    constructor(address initialOwner) ERC721(\"MyNFT\", \"MNFT\") Ownable(initialOwner) {\r\n        //  Ownable        \r\n    }\r\n\r\n    //    \r\n    function mint(address recipient, string memory _tokenURI) external onlyOwner {\r\n        uint256 tokenId = nextTokenId;\r\n        nextTokenId++;\r\n        _mint(recipient, tokenId);\r\n        _setTokenURI(tokenId, _tokenURI);\r\n    }\r\n\r\n    //    \r\n    function tokenExists(uint256 tokenId) public view returns (bool) {\r\n        // ownerOf           \r\n        try this.ownerOf(tokenId) returns (address owner) {\r\n            return owner != address(0);\r\n        } catch {\r\n            return false;\r\n        }\r\n    }\r\n\r\n    //  URI  \r\n    function tokenURI(uint256 tokenId) public view override returns (string memory) {\r\n        require(tokenExists(tokenId), \"Token does not exist.\");\r\n        return super.tokenURI(tokenId);\r\n    }\r\n}\r\n",
  "sourcePath": "C:\\Users\\SSAFY\\Desktop\\  (3)\\S11P21C103\\blockchain\\NFT\\contracts\\MyNFT.sol",
  "compiler": {
    "name": "solc",
    "version": "0.8.21+commit.d9974bed.Emscripten.clang"
  },
  "schemaVersion": "3.4.16",
  "updatedAt": "2024-09-26T00:25:39.155Z",
  "networkType": "ethereum",
  "devdoc": {
    "errors": {
      "ERC721IncorrectOwner(address,uint256,address)": [
        {
          "details": "Indicates an error related to the ownership over a particular token. Used in transfers.",
          "params": {
            "owner": "Address of the current owner of a token.",
            "sender": "Address whose tokens are being transferred.",
            "tokenId": "Identifier number of a token."
          }
        }
      ],
      "ERC721InsufficientApproval(address,uint256)": [
        {
          "details": "Indicates a failure with the `operator`s approval. Used in transfers.",
          "params": {
            "operator": "Address that may be allowed to operate on tokens without being their owner.",
            "tokenId": "Identifier number of a token."
          }
        }
      ],
      "ERC721InvalidApprover(address)": [
        {
          "details": "Indicates a failure with the `approver` of a token to be approved. Used in approvals.",
          "params": {
            "approver": "Address initiating an approval operation."
          }
        }
      ],
      "ERC721InvalidOperator(address)": [
        {
          "details": "Indicates a failure with the `operator` to be approved. Used in approvals.",
          "params": {
            "operator": "Address that may be allowed to operate on tokens without being their owner."
          }
        }
      ],
      "ERC721InvalidOwner(address)": [
        {
          "details": "Indicates that an address can't be an owner. For example, `address(0)` is a forbidden owner in EIP-20. Used in balance queries.",
          "params": {
            "owner": "Address of the current owner of a token."
          }
        }
      ],
      "ERC721InvalidReceiver(address)": [
        {
          "details": "Indicates a failure with the token `receiver`. Used in transfers.",
          "params": {
            "receiver": "Address to which tokens are being transferred."
          }
        }
      ],
      "ERC721InvalidSender(address)": [
        {
          "details": "Indicates a failure with the token `sender`. Used in transfers.",
          "params": {
            "sender": "Address whose tokens are being transferred."
          }
        }
      ],
      "ERC721NonexistentToken(uint256)": [
        {
          "details": "Indicates a `tokenId` whose `owner` is the zero address.",
          "params": {
            "tokenId": "Identifier number of a token."
          }
        }
      ],
      "OwnableInvalidOwner(address)": [
        {
          "details": "The owner is not a valid owner account. (eg. `address(0)`)"
        }
      ],
      "OwnableUnauthorizedAccount(address)": [
        {
          "details": "The caller account is not authorized to perform an operation."
        }
      ]
    },
    "events": {
      "Approval(address,address,uint256)": {
        "details": "Emitted when `owner` enables `approved` to manage the `tokenId` token."
      },
      "ApprovalForAll(address,address,bool)": {
        "details": "Emitted when `owner` enables or disables (`approved`) `operator` to manage all of its assets."
      },
      "BatchMetadataUpdate(uint256,uint256)": {
        "details": "This event emits when the metadata of a range of tokens is changed. So that the third-party platforms such as NFT market could timely update the images and related attributes of the NFTs."
      },
      "MetadataUpdate(uint256)": {
        "details": "This event emits when the metadata of a token is changed. So that the third-party platforms such as NFT market could timely update the images and related attributes of the NFT."
      },
      "Transfer(address,address,uint256)": {
        "details": "Emitted when `tokenId` token is transferred from `from` to `to`."
      }
    },
    "kind": "dev",
    "methods": {
      "approve(address,uint256)": {
        "details": "See {IERC721-approve}."
      },
      "balanceOf(address)": {
        "details": "See {IERC721-balanceOf}."
      },
      "getApproved(uint256)": {
        "details": "See {IERC721-getApproved}."
      },
      "isApprovedForAll(address,address)": {
        "details": "See {IERC721-isApprovedForAll}."
      },
      "name()": {
        "details": "See {IERC721Metadata-name}."
      },
      "owner()": {
        "details": "Returns the address of the current owner."
      },
      "ownerOf(uint256)": {
        "details": "See {IERC721-ownerOf}."
      },
      "renounceOwnership()": {
        "details": "Leaves the contract without owner. It will not be possible to call `onlyOwner` functions. Can only be called by the current owner. NOTE: Renouncing ownership will leave the contract without an owner, thereby disabling any functionality that is only available to the owner."
      },
      "safeTransferFrom(address,address,uint256)": {
        "details": "See {IERC721-safeTransferFrom}."
      },
      "safeTransferFrom(address,address,uint256,bytes)": {
        "details": "See {IERC721-safeTransferFrom}."
      },
      "setApprovalForAll(address,bool)": {
        "details": "See {IERC721-setApprovalForAll}."
      },
      "supportsInterface(bytes4)": {
        "details": "See {IERC165-supportsInterface}"
      },
      "symbol()": {
        "details": "See {IERC721Metadata-symbol}."
      },
      "tokenURI(uint256)": {
        "details": "See {IERC721Metadata-tokenURI}."
      },
      "transferFrom(address,address,uint256)": {
        "details": "See {IERC721-transferFrom}."
      },
      "transferOwnership(address)": {
        "details": "Transfers ownership of the contract to a new account (`newOwner`). Can only be called by the current owner."
      }
    },
    "version": 1
  },
  "userdoc": {
    "kind": "user",
    "methods": {},
    "version": 1
  }
}