{
  "contractName": "MyNFT",
  "abi": [
    {
      "inputs": [],
      "stateMutability": "nonpayable",
      "type": "constructor"
    },
    {
      "anonymous": false,
      "inputs": [
        {
          "indexed": true,
          "internalType": "address",
          "name": "owner",
          "type": "address"
        },
        {
          "indexed": true,
          "internalType": "address",
          "name": "approved",
          "type": "address"
        },
        {
          "indexed": true,
          "internalType": "uint256",
          "name": "tokenId",
          "type": "uint256"
        }
      ],
      "name": "Approval",
      "type": "event"
    },
    {
      "anonymous": false,
      "inputs": [
        {
          "indexed": true,
          "internalType": "address",
          "name": "owner",
          "type": "address"
        },
        {
          "indexed": true,
          "internalType": "address",
          "name": "operator",
          "type": "address"
        },
        {
          "indexed": false,
          "internalType": "bool",
          "name": "approved",
          "type": "bool"
        }
      ],
      "name": "ApprovalForAll",
      "type": "event"
    },
    {
      "anonymous": false,
      "inputs": [
        {
          "indexed": false,
          "internalType": "uint256",
          "name": "_fromTokenId",
          "type": "uint256"
        },
        {
          "indexed": false,
          "internalType": "uint256",
          "name": "_toTokenId",
          "type": "uint256"
        }
      ],
      "name": "BatchMetadataUpdate",
      "type": "event"
    },
    {
      "anonymous": false,
      "inputs": [
        {
          "indexed": false,
          "internalType": "uint256",
          "name": "_tokenId",
          "type": "uint256"
        }
      ],
      "name": "MetadataUpdate",
      "type": "event"
    },
    {
      "anonymous": false,
      "inputs": [
        {
          "indexed": false,
          "internalType": "address",
          "name": "recipient",
          "type": "address"
        },
        {
          "indexed": false,
          "internalType": "uint256",
          "name": "tokenId",
          "type": "uint256"
        },
        {
          "indexed": false,
          "internalType": "string",
          "name": "tokenURI",
          "type": "string"
        }
      ],
      "name": "Minted",
      "type": "event"
    },
    {
      "anonymous": false,
      "inputs": [
        {
          "indexed": true,
          "internalType": "address",
          "name": "previousOwner",
          "type": "address"
        },
        {
          "indexed": true,
          "internalType": "address",
          "name": "newOwner",
          "type": "address"
        }
      ],
      "name": "OwnershipTransferred",
      "type": "event"
    },
    {
      "anonymous": false,
      "inputs": [
        {
          "indexed": true,
          "internalType": "address",
          "name": "from",
          "type": "address"
        },
        {
          "indexed": true,
          "internalType": "address",
          "name": "to",
          "type": "address"
        },
        {
          "indexed": true,
          "internalType": "uint256",
          "name": "tokenId",
          "type": "uint256"
        }
      ],
      "name": "Transfer",
      "type": "event"
    },
    {
      "inputs": [],
      "name": "admin",
      "outputs": [
        {
          "internalType": "address",
          "name": "",
          "type": "address"
        }
      ],
      "stateMutability": "view",
      "type": "function",
      "constant": true
    },
    {
      "inputs": [
        {
          "internalType": "address",
          "name": "to",
          "type": "address"
        },
        {
          "internalType": "uint256",
          "name": "tokenId",
          "type": "uint256"
        }
      ],
      "name": "approve",
      "outputs": [],
      "stateMutability": "nonpayable",
      "type": "function"
    },
    {
      "inputs": [
        {
          "internalType": "address",
          "name": "owner",
          "type": "address"
        }
      ],
      "name": "balanceOf",
      "outputs": [
        {
          "internalType": "uint256",
          "name": "",
          "type": "uint256"
        }
      ],
      "stateMutability": "view",
      "type": "function",
      "constant": true
    },
    {
      "inputs": [
        {
          "internalType": "uint256",
          "name": "tokenId",
          "type": "uint256"
        }
      ],
      "name": "getApproved",
      "outputs": [
        {
          "internalType": "address",
          "name": "",
          "type": "address"
        }
      ],
      "stateMutability": "view",
      "type": "function",
      "constant": true
    },
    {
      "inputs": [
        {
          "internalType": "address",
          "name": "owner",
          "type": "address"
        },
        {
          "internalType": "address",
          "name": "operator",
          "type": "address"
        }
      ],
      "name": "isApprovedForAll",
      "outputs": [
        {
          "internalType": "bool",
          "name": "",
          "type": "bool"
        }
      ],
      "stateMutability": "view",
      "type": "function",
      "constant": true
    },
    {
      "inputs": [],
      "name": "name",
      "outputs": [
        {
          "internalType": "string",
          "name": "",
          "type": "string"
        }
      ],
      "stateMutability": "view",
      "type": "function",
      "constant": true
    },
    {
      "inputs": [],
      "name": "nextTokenId",
      "outputs": [
        {
          "internalType": "uint256",
          "name": "",
          "type": "uint256"
        }
      ],
      "stateMutability": "view",
      "type": "function",
      "constant": true
    },
    {
      "inputs": [],
      "name": "owner",
      "outputs": [
        {
          "internalType": "address",
          "name": "",
          "type": "address"
        }
      ],
      "stateMutability": "view",
      "type": "function",
      "constant": true
    },
    {
      "inputs": [
        {
          "internalType": "uint256",
          "name": "tokenId",
          "type": "uint256"
        }
      ],
      "name": "ownerOf",
      "outputs": [
        {
          "internalType": "address",
          "name": "",
          "type": "address"
        }
      ],
      "stateMutability": "view",
      "type": "function",
      "constant": true
    },
    {
      "inputs": [],
      "name": "renounceOwnership",
      "outputs": [],
      "stateMutability": "nonpayable",
      "type": "function"
    },
    {
      "inputs": [
        {
          "internalType": "address",
          "name": "from",
          "type": "address"
        },
        {
          "internalType": "address",
          "name": "to",
          "type": "address"
        },
        {
          "internalType": "uint256",
          "name": "tokenId",
          "type": "uint256"
        }
      ],
      "name": "safeTransferFrom",
      "outputs": [],
      "stateMutability": "nonpayable",
      "type": "function"
    },
    {
      "inputs": [
        {
          "internalType": "address",
          "name": "from",
          "type": "address"
        },
        {
          "internalType": "address",
          "name": "to",
          "type": "address"
        },
        {
          "internalType": "uint256",
          "name": "tokenId",
          "type": "uint256"
        },
        {
          "internalType": "bytes",
          "name": "data",
          "type": "bytes"
        }
      ],
      "name": "safeTransferFrom",
      "outputs": [],
      "stateMutability": "nonpayable",
      "type": "function"
    },
    {
      "inputs": [
        {
          "internalType": "address",
          "name": "operator",
          "type": "address"
        },
        {
          "internalType": "bool",
          "name": "approved",
          "type": "bool"
        }
      ],
      "name": "setApprovalForAll",
      "outputs": [],
      "stateMutability": "nonpayable",
      "type": "function"
    },
    {
      "inputs": [
        {
          "internalType": "bytes4",
          "name": "interfaceId",
          "type": "bytes4"
        }
      ],
      "name": "supportsInterface",
      "outputs": [
        {
          "internalType": "bool",
          "name": "",
          "type": "bool"
        }
      ],
      "stateMutability": "view",
      "type": "function",
      "constant": true
    },
    {
      "inputs": [],
      "name": "symbol",
      "outputs": [
        {
          "internalType": "string",
          "name": "",
          "type": "string"
        }
      ],
      "stateMutability": "view",
      "type": "function",
      "constant": true
    },
    {
      "inputs": [
        {
          "internalType": "address",
          "name": "from",
          "type": "address"
        },
        {
          "internalType": "address",
          "name": "to",
          "type": "address"
        },
        {
          "internalType": "uint256",
          "name": "tokenId",
          "type": "uint256"
        }
      ],
      "name": "transferFrom",
      "outputs": [],
      "stateMutability": "nonpayable",
      "type": "function"
    },
    {
      "inputs": [
        {
          "internalType": "address",
          "name": "newOwner",
          "type": "address"
        }
      ],
      "name": "transferOwnership",
      "outputs": [],
      "stateMutability": "nonpayable",
      "type": "function"
    },
    {
      "inputs": [
        {
          "internalType": "address",
          "name": "recipient",
          "type": "address"
        },
        {
          "internalType": "string",
          "name": "_tokenURI",
          "type": "string"
        }
      ],
      "name": "mint",
      "outputs": [],
      "stateMutability": "nonpayable",
      "type": "function"
    },
    {
      "inputs": [
        {
          "internalType": "uint256",
          "name": "tokenId",
          "type": "uint256"
        }
      ],
      "name": "tokenExists",
      "outputs": [
        {
          "internalType": "bool",
          "name": "",
          "type": "bool"
        }
      ],
      "stateMutability": "view",
      "type": "function",
      "constant": true
    },
    {
      "inputs": [
        {
          "internalType": "uint256",
          "name": "tokenId",
          "type": "uint256"
        }
      ],
      "name": "tokenURI",
      "outputs": [
        {
          "internalType": "string",
          "name": "",
          "type": "string"
        }
      ],
      "stateMutability": "view",
      "type": "function",
      "constant": true
    }
  ],
  "bytecode": "0x60806040523480156200001157600080fd5b506040518060400160405280600581526020017f4d794e46540000000000000000000000000000000000000000000000000000008152506040518060400160405280600481526020017f4d4e465400000000000000000000000000000000000000000000000000000000815250816000908051906020019062000096929190620001a6565b508060019080519060200190620000af929190620001a6565b505050620000d2620000c6620000d860201b60201c565b620000e060201b60201c565b620002bb565b600033905090565b6000600760009054906101000a900473ffffffffffffffffffffffffffffffffffffffff16905081600760006101000a81548173ffffffffffffffffffffffffffffffffffffffff021916908373ffffffffffffffffffffffffffffffffffffffff1602179055508173ffffffffffffffffffffffffffffffffffffffff168173ffffffffffffffffffffffffffffffffffffffff167f8be0079c531659141344cd1fd0a4f28419497f9722a3daafe3b4186f6b6457e060405160405180910390a35050565b828054620001b49062000256565b90600052602060002090601f016020900481019282620001d8576000855562000224565b82601f10620001f357805160ff191683800117855562000224565b8280016001018555821562000224579182015b828111156200022357825182559160200191906001019062000206565b5b50905062000233919062000237565b5090565b5b808211156200025257600081600090555060010162000238565b5090565b600060028204905060018216806200026f57607f821691505b602082108114156200028657620002856200028c565b5b50919050565b7f4e487b7100000000000000000000000000000000000000000000000000000000600052602260045260246000fd5b61309580620002cb6000396000f3fe608060405234801561001057600080fd5b506004361061012b5760003560e01c806375794a3c116100ad578063c87b56dd11610071578063c87b56dd1461032e578063d0def5211461035e578063e985e9c51461037a578063f2fde38b146103aa578063f851a440146103c65761012b565b806375794a3c1461029c5780638da5cb5b146102ba57806395d89b41146102d8578063a22cb465146102f6578063b88d4fde146103125761012b565b806323b872dd116100f457806323b872dd146101fa57806342842e0e146102165780636352211e1461023257806370a0823114610262578063715018a6146102925761012b565b8062923f9e1461013057806301ffc9a71461016057806306fdde0314610190578063081812fc146101ae578063095ea7b3146101de575b600080fd5b61014a60048036038101906101459190612375565b6103e4565b6040516101579190612744565b60405180910390f35b61017a60048036038101906101759190612323565b6104af565b6040516101879190612744565b60405180910390f35b610198610510565b6040516101a5919061275f565b60405180910390f35b6101c860048036038101906101c39190612375565b6105a2565b6040516101d5919061269f565b60405180910390f35b6101f860048036038101906101f391906122e7565b6105e8565b005b610214600480360381019061020f919061218d565b610700565b005b610230600480360381019061022b919061218d565b610760565b005b61024c60048036038101906102479190612375565b610780565b604051610259919061269f565b60405180910390f35b61027c600480360381019061027791906120ff565b610807565b6040516102899190612961565b60405180910390f35b61029a6108bf565b005b6102a46108d3565b6040516102b19190612961565b60405180910390f35b6102c26108d9565b6040516102cf919061269f565b60405180910390f35b6102e0610903565b6040516102ed919061275f565b60405180910390f35b610310600480360381019061030b9190612257565b610995565b005b61032c600480360381019061032791906121dc565b6109ab565b005b61034860048036038101906103439190612375565b610a0d565b604051610355919061275f565b60405180910390f35b61037860048036038101906103739190612293565b610a67565b005b610394600480360381019061038f9190612151565b610ae2565b6040516103a19190612744565b60405180910390f35b6103c460048036038101906103bf91906120ff565b610b76565b005b6103ce610bfa565b6040516103db919061269f565b60405180910390f35b60003073ffffffffffffffffffffffffffffffffffffffff16636352211e836040518263ffffffff1660e01b815260040161041f9190612961565b60206040518083038186803b15801561043757600080fd5b505afa92505050801561046857506040513d601f19601f820116820180604052508101906104659190612128565b60015b61047557600090506104aa565b600073ffffffffffffffffffffffffffffffffffffffff168173ffffffffffffffffffffffffffffffffffffffff1614159150505b919050565b6000634906490660e01b7bffffffffffffffffffffffffffffffffffffffffffffffffffffffff1916827bffffffffffffffffffffffffffffffffffffffffffffffffffffffff19161480610509575061050882610c20565b5b9050919050565b60606000805461051f90612afc565b80601f016020809104026020016040519081016040528092919081815260200182805461054b90612afc565b80156105985780601f1061056d57610100808354040283529160200191610598565b820191906000526020600020905b81548152906001019060200180831161057b57829003601f168201915b5050505050905090565b60006105ad82610d02565b6004600083815260200190815260200160002060009054906101000a900473ffffffffffffffffffffffffffffffffffffffff169050919050565b60006105f382610780565b90508073ffffffffffffffffffffffffffffffffffffffff168373ffffffffffffffffffffffffffffffffffffffff161415610664576040517f08c379a000000000000000000000000000000000000000000000000000000000815260040161065b90612921565b60405180910390fd5b8073ffffffffffffffffffffffffffffffffffffffff16610683610d4d565b73ffffffffffffffffffffffffffffffffffffffff1614806106b257506106b1816106ac610d4d565b610ae2565b5b6106f1576040517f08c379a00000000000000000000000000000000000000000000000000000000081526004016106e890612941565b60405180910390fd5b6106fb8383610d55565b505050565b61071161070b610d4d565b82610e0e565b610750576040517f08c379a000000000000000000000000000000000000000000000000000000000815260040161074790612781565b60405180910390fd5b61075b838383610ea3565b505050565b61077b838383604051806020016040528060008152506109ab565b505050565b60008061078c8361119d565b9050600073ffffffffffffffffffffffffffffffffffffffff168173ffffffffffffffffffffffffffffffffffffffff1614156107fe576040517f08c379a00000000000000000000000000000000000000000000000000000000081526004016107f590612901565b60405180910390fd5b80915050919050565b60008073ffffffffffffffffffffffffffffffffffffffff168273ffffffffffffffffffffffffffffffffffffffff161415610878576040517f08c379a000000000000000000000000000000000000000000000000000000000815260040161086f90612861565b60405180910390fd5b600360008373ffffffffffffffffffffffffffffffffffffffff1673ffffffffffffffffffffffffffffffffffffffff168152602001908152602001600020549050919050565b6108c76111da565b6108d16000611258565b565b60085481565b6000600760009054906101000a900473ffffffffffffffffffffffffffffffffffffffff16905090565b60606001805461091290612afc565b80601f016020809104026020016040519081016040528092919081815260200182805461093e90612afc565b801561098b5780601f106109605761010080835404028352916020019161098b565b820191906000526020600020905b81548152906001019060200180831161096e57829003601f168201915b5050505050905090565b6109a76109a0610d4d565b838361131e565b5050565b6109bc6109b6610d4d565b83610e0e565b6109fb576040517f08c379a00000000000000000000000000000000000000000000000000000000081526004016109f290612781565b60405180910390fd5b610a078484848461148b565b50505050565b6060610a18826103e4565b610a57576040517f08c379a0000000000000000000000000000000000000000000000000000000008152600401610a4e906128c1565b60405180910390fd5b610a60826114e7565b9050919050565b610a6f6111da565b6000600854905060086000815480929190610a8990612b5f565b9190505550610a9883826115fa565b610aa28183611818565b7fe7cd4ce7f2a465edc730269a1305e8a48bad821e8fb7e152ec413829c01a53c4838284604051610ad593929190612706565b60405180910390a1505050565b6000600560008473ffffffffffffffffffffffffffffffffffffffff1673ffffffffffffffffffffffffffffffffffffffff16815260200190815260200160002060008373ffffffffffffffffffffffffffffffffffffffff1673ffffffffffffffffffffffffffffffffffffffff16815260200190815260200160002060009054906101000a900460ff16905092915050565b610b7e6111da565b600073ffffffffffffffffffffffffffffffffffffffff168173ffffffffffffffffffffffffffffffffffffffff161415610bee576040517f08c379a0000000000000000000000000000000000000000000000000000000008152600401610be5906127c1565b60405180910390fd5b610bf781611258565b50565b600960009054906101000a900473ffffffffffffffffffffffffffffffffffffffff1681565b60007f80ac58cd000000000000000000000000000000000000000000000000000000007bffffffffffffffffffffffffffffffffffffffffffffffffffffffff1916827bffffffffffffffffffffffffffffffffffffffffffffffffffffffff19161480610ceb57507f5b5e139f000000000000000000000000000000000000000000000000000000007bffffffffffffffffffffffffffffffffffffffffffffffffffffffff1916827bffffffffffffffffffffffffffffffffffffffffffffffffffffffff1916145b80610cfb5750610cfa826118c3565b5b9050919050565b610d0b8161192d565b610d4a576040517f08c379a0000000000000000000000000000000000000000000000000000000008152600401610d4190612901565b60405180910390fd5b50565b600033905090565b816004600083815260200190815260200160002060006101000a81548173ffffffffffffffffffffffffffffffffffffffff021916908373ffffffffffffffffffffffffffffffffffffffff160217905550808273ffffffffffffffffffffffffffffffffffffffff16610dc883610780565b73ffffffffffffffffffffffffffffffffffffffff167f8c5be1e5ebec7d5bd14f71427d1e84f3dd0314c0f7b2291e5b200ac8c7c3b92560405160405180910390a45050565b600080610e1a83610780565b90508073ffffffffffffffffffffffffffffffffffffffff168473ffffffffffffffffffffffffffffffffffffffff161480610e5c5750610e5b8185610ae2565b5b80610e9a57508373ffffffffffffffffffffffffffffffffffffffff16610e82846105a2565b73ffffffffffffffffffffffffffffffffffffffff16145b91505092915050565b8273ffffffffffffffffffffffffffffffffffffffff16610ec382610780565b73ffffffffffffffffffffffffffffffffffffffff1614610f19576040517f08c379a0000000000000000000000000000000000000000000000000000000008152600401610f10906127e1565b60405180910390fd5b600073ffffffffffffffffffffffffffffffffffffffff168273ffffffffffffffffffffffffffffffffffffffff161415610f89576040517f08c379a0000000000000000000000000000000000000000000000000000000008152600401610f8090612821565b60405180910390fd5b610f96838383600161196e565b8273ffffffffffffffffffffffffffffffffffffffff16610fb682610780565b73ffffffffffffffffffffffffffffffffffffffff161461100c576040517f08c379a0000000000000000000000000000000000000000000000000000000008152600401611003906127e1565b60405180910390fd5b6004600082815260200190815260200160002060006101000a81549073ffffffffffffffffffffffffffffffffffffffff02191690556001600360008573ffffffffffffffffffffffffffffffffffffffff1673ffffffffffffffffffffffffffffffffffffffff168152602001908152602001600020600082825403925050819055506001600360008473ffffffffffffffffffffffffffffffffffffffff1673ffffffffffffffffffffffffffffffffffffffff16815260200190815260200160002060008282540192505081905550816002600083815260200190815260200160002060006101000a81548173ffffffffffffffffffffffffffffffffffffffff021916908373ffffffffffffffffffffffffffffffffffffffff160217905550808273ffffffffffffffffffffffffffffffffffffffff168473ffffffffffffffffffffffffffffffffffffffff167fddf252ad1be2c89b69c2b068fc378daa952ba7f163c4a11628f55a4df523b3ef60405160405180910390a46111988383836001611974565b505050565b60006002600083815260200190815260200160002060009054906101000a900473ffffffffffffffffffffffffffffffffffffffff169050919050565b6111e2610d4d565b73ffffffffffffffffffffffffffffffffffffffff166112006108d9565b73ffffffffffffffffffffffffffffffffffffffff1614611256576040517f08c379a000000000000000000000000000000000000000000000000000000000815260040161124d906128e1565b60405180910390fd5b565b6000600760009054906101000a900473ffffffffffffffffffffffffffffffffffffffff16905081600760006101000a81548173ffffffffffffffffffffffffffffffffffffffff021916908373ffffffffffffffffffffffffffffffffffffffff1602179055508173ffffffffffffffffffffffffffffffffffffffff168173ffffffffffffffffffffffffffffffffffffffff167f8be0079c531659141344cd1fd0a4f28419497f9722a3daafe3b4186f6b6457e060405160405180910390a35050565b8173ffffffffffffffffffffffffffffffffffffffff168373ffffffffffffffffffffffffffffffffffffffff16141561138d576040517f08c379a000000000000000000000000000000000000000000000000000000000815260040161138490612841565b60405180910390fd5b80600560008573ffffffffffffffffffffffffffffffffffffffff1673ffffffffffffffffffffffffffffffffffffffff16815260200190815260200160002060008473ffffffffffffffffffffffffffffffffffffffff1673ffffffffffffffffffffffffffffffffffffffff16815260200190815260200160002060006101000a81548160ff0219169083151502179055508173ffffffffffffffffffffffffffffffffffffffff168373ffffffffffffffffffffffffffffffffffffffff167f17307eab39ab6107e8899845ad3d59bd9653f200f220920489ca2b5937696c318360405161147e9190612744565b60405180910390a3505050565b611496848484610ea3565b6114a28484848461197a565b6114e1576040517f08c379a00000000000000000000000000000000000000000000000000000000081526004016114d8906127a1565b60405180910390fd5b50505050565b60606114f282610d02565b600060066000848152602001908152602001600020805461151290612afc565b80601f016020809104026020016040519081016040528092919081815260200182805461153e90612afc565b801561158b5780601f106115605761010080835404028352916020019161158b565b820191906000526020600020905b81548152906001019060200180831161156e57829003601f168201915b50505050509050600061159c611b11565b90506000815114156115b25781925050506115f5565b6000825111156115e75780826040516020016115cf92919061267b565b604051602081830303815290604052925050506115f5565b6115f084611b28565b925050505b919050565b600073ffffffffffffffffffffffffffffffffffffffff168273ffffffffffffffffffffffffffffffffffffffff16141561166a576040517f08c379a0000000000000000000000000000000000000000000000000000000008152600401611661906128a1565b60405180910390fd5b6116738161192d565b156116b3576040517f08c379a00000000000000000000000000000000000000000000000000000000081526004016116aa90612801565b60405180910390fd5b6116c160008383600161196e565b6116ca8161192d565b1561170a576040517f08c379a000000000000000000000000000000000000000000000000000000000815260040161170190612801565b60405180910390fd5b6001600360008473ffffffffffffffffffffffffffffffffffffffff1673ffffffffffffffffffffffffffffffffffffffff16815260200190815260200160002060008282540192505081905550816002600083815260200190815260200160002060006101000a81548173ffffffffffffffffffffffffffffffffffffffff021916908373ffffffffffffffffffffffffffffffffffffffff160217905550808273ffffffffffffffffffffffffffffffffffffffff16600073ffffffffffffffffffffffffffffffffffffffff167fddf252ad1be2c89b69c2b068fc378daa952ba7f163c4a11628f55a4df523b3ef60405160405180910390a4611814600083836001611974565b5050565b6118218261192d565b611860576040517f08c379a000000000000000000000000000000000000000000000000000000000815260040161185790612881565b60405180910390fd5b80600660008481526020019081526020016000209080519060200190611887929190611f0e565b507ff8e1a15aba9398e019f0b49df1a4fde98ee17ae345cb5f6b5e2c27f5033e8ce7826040516118b79190612961565b60405180910390a15050565b60007f01ffc9a7000000000000000000000000000000000000000000000000000000007bffffffffffffffffffffffffffffffffffffffffffffffffffffffff1916827bffffffffffffffffffffffffffffffffffffffffffffffffffffffff1916149050919050565b60008073ffffffffffffffffffffffffffffffffffffffff1661194f8361119d565b73ffffffffffffffffffffffffffffffffffffffff1614159050919050565b50505050565b50505050565b600061199b8473ffffffffffffffffffffffffffffffffffffffff16611b90565b15611b04578373ffffffffffffffffffffffffffffffffffffffff1663150b7a026119c4610d4d565b8786866040518563ffffffff1660e01b81526004016119e694939291906126ba565b602060405180830381600087803b158015611a0057600080fd5b505af1925050508015611a3157506040513d601f19601f82011682018060405250810190611a2e919061234c565b60015b611ab4573d8060008114611a61576040519150601f19603f3d011682016040523d82523d6000602084013e611a66565b606091505b50600081511415611aac576040517f08c379a0000000000000000000000000000000000000000000000000000000008152600401611aa3906127a1565b60405180910390fd5b805181602001fd5b63150b7a0260e01b7bffffffffffffffffffffffffffffffffffffffffffffffffffffffff1916817bffffffffffffffffffffffffffffffffffffffffffffffffffffffff191614915050611b09565b600190505b949350505050565b606060405180602001604052806000815250905090565b6060611b3382610d02565b6000611b3d611b11565b90506000815111611b5d5760405180602001604052806000815250611b88565b80611b6784611bb3565b604051602001611b7892919061267b565b6040516020818303038152906040525b915050919050565b6000808273ffffffffffffffffffffffffffffffffffffffff163b119050919050565b606060006001611bc284611cd7565b01905060008167ffffffffffffffff811115611c07577f4e487b7100000000000000000000000000000000000000000000000000000000600052604160045260246000fd5b6040519080825280601f01601f191660200182016040528015611c395781602001600182028036833780820191505090505b509050600082602001820190505b600115611ccc578080600190039150507f3031323334353637383961626364656600000000000000000000000000000000600a86061a8153600a8581611cb6577f4e487b7100000000000000000000000000000000000000000000000000000000600052601260045260246000fd5b0494506000851415611cc757611ccc565b611c47565b819350505050919050565b600080600090507a184f03e93ff9f4daa797ed6e38ed64bf6a1f0100000000000000008310611d5b577a184f03e93ff9f4daa797ed6e38ed64bf6a1f0100000000000000008381611d51577f4e487b7100000000000000000000000000000000000000000000000000000000600052601260045260246000fd5b0492506040810190505b6d04ee2d6d415b85acef81000000008310611dbe576d04ee2d6d415b85acef81000000008381611db4577f4e487b7100000000000000000000000000000000000000000000000000000000600052601260045260246000fd5b0492506020810190505b662386f26fc100008310611e1357662386f26fc100008381611e09577f4e487b7100000000000000000000000000000000000000000000000000000000600052601260045260246000fd5b0492506010810190505b6305f5e1008310611e62576305f5e1008381611e58577f4e487b7100000000000000000000000000000000000000000000000000000000600052601260045260246000fd5b0492506008810190505b6127108310611ead576127108381611ea3577f4e487b7100000000000000000000000000000000000000000000000000000000600052601260045260246000fd5b0492506004810190505b60648310611ef65760648381611eec577f4e487b7100000000000000000000000000000000000000000000000000000000600052601260045260246000fd5b0492506002810190505b600a8310611f05576001810190505b80915050919050565b828054611f1a90612afc565b90600052602060002090601f016020900481019282611f3c5760008555611f83565b82601f10611f5557805160ff1916838001178555611f83565b82800160010185558215611f83579182015b82811115611f82578251825591602001919060010190611f67565b5b509050611f909190611f94565b5090565b5b80821115611fad576000816000905550600101611f95565b5090565b6000611fc4611fbf846129a1565b61297c565b905082815260208101848484011115611fdc57600080fd5b611fe7848285612aba565b509392505050565b6000612002611ffd846129d2565b61297c565b90508281526020810184848401111561201a57600080fd5b612025848285612aba565b509392505050565b60008135905061203c81613003565b92915050565b60008151905061205181613003565b92915050565b6000813590506120668161301a565b92915050565b60008135905061207b81613031565b92915050565b60008151905061209081613031565b92915050565b600082601f8301126120a757600080fd5b81356120b7848260208601611fb1565b91505092915050565b600082601f8301126120d157600080fd5b81356120e1848260208601611fef565b91505092915050565b6000813590506120f981613048565b92915050565b60006020828403121561211157600080fd5b600061211f8482850161202d565b91505092915050565b60006020828403121561213a57600080fd5b600061214884828501612042565b91505092915050565b6000806040838503121561216457600080fd5b60006121728582860161202d565b92505060206121838582860161202d565b9150509250929050565b6000806000606084860312156121a257600080fd5b60006121b08682870161202d565b93505060206121c18682870161202d565b92505060406121d2868287016120ea565b9150509250925092565b600080600080608085870312156121f257600080fd5b60006122008782880161202d565b94505060206122118782880161202d565b9350506040612222878288016120ea565b925050606085013567ffffffffffffffff81111561223f57600080fd5b61224b87828801612096565b91505092959194509250565b6000806040838503121561226a57600080fd5b60006122788582860161202d565b925050602061228985828601612057565b9150509250929050565b600080604083850312156122a657600080fd5b60006122b48582860161202d565b925050602083013567ffffffffffffffff8111156122d157600080fd5b6122dd858286016120c0565b9150509250929050565b600080604083850312156122fa57600080fd5b60006123088582860161202d565b9250506020612319858286016120ea565b9150509250929050565b60006020828403121561233557600080fd5b60006123438482850161206c565b91505092915050565b60006020828403121561235e57600080fd5b600061236c84828501612081565b91505092915050565b60006020828403121561238757600080fd5b6000612395848285016120ea565b91505092915050565b6123a781612a46565b82525050565b6123b681612a58565b82525050565b60006123c782612a03565b6123d18185612a19565b93506123e1818560208601612ac9565b6123ea81612c35565b840191505092915050565b600061240082612a0e565b61240a8185612a2a565b935061241a818560208601612ac9565b61242381612c35565b840191505092915050565b600061243982612a0e565b6124438185612a3b565b9350612453818560208601612ac9565b80840191505092915050565b600061246c602d83612a2a565b915061247782612c46565b604082019050919050565b600061248f603283612a2a565b915061249a82612c95565b604082019050919050565b60006124b2602683612a2a565b91506124bd82612ce4565b604082019050919050565b60006124d5602583612a2a565b91506124e082612d33565b604082019050919050565b60006124f8601c83612a2a565b915061250382612d82565b602082019050919050565b600061251b602483612a2a565b915061252682612dab565b604082019050919050565b600061253e601983612a2a565b915061254982612dfa565b602082019050919050565b6000612561602983612a2a565b915061256c82612e23565b604082019050919050565b6000612584602e83612a2a565b915061258f82612e72565b604082019050919050565b60006125a7602083612a2a565b91506125b282612ec1565b602082019050919050565b60006125ca601583612a2a565b91506125d582612eea565b602082019050919050565b60006125ed602083612a2a565b91506125f882612f13565b602082019050919050565b6000612610601883612a2a565b915061261b82612f3c565b602082019050919050565b6000612633602183612a2a565b915061263e82612f65565b604082019050919050565b6000612656603d83612a2a565b915061266182612fb4565b604082019050919050565b61267581612ab0565b82525050565b6000612687828561242e565b9150612693828461242e565b91508190509392505050565b60006020820190506126b4600083018461239e565b92915050565b60006080820190506126cf600083018761239e565b6126dc602083018661239e565b6126e9604083018561266c565b81810360608301526126fb81846123bc565b905095945050505050565b600060608201905061271b600083018661239e565b612728602083018561266c565b818103604083015261273a81846123f5565b9050949350505050565b600060208201905061275960008301846123ad565b92915050565b6000602082019050818103600083015261277981846123f5565b905092915050565b6000602082019050818103600083015261279a8161245f565b9050919050565b600060208201905081810360008301526127ba81612482565b9050919050565b600060208201905081810360008301526127da816124a5565b9050919050565b600060208201905081810360008301526127fa816124c8565b9050919050565b6000602082019050818103600083015261281a816124eb565b9050919050565b6000602082019050818103600083015261283a8161250e565b9050919050565b6000602082019050818103600083015261285a81612531565b9050919050565b6000602082019050818103600083015261287a81612554565b9050919050565b6000602082019050818103600083015261289a81612577565b9050919050565b600060208201905081810360008301526128ba8161259a565b9050919050565b600060208201905081810360008301526128da816125bd565b9050919050565b600060208201905081810360008301526128fa816125e0565b9050919050565b6000602082019050818103600083015261291a81612603565b9050919050565b6000602082019050818103600083015261293a81612626565b9050919050565b6000602082019050818103600083015261295a81612649565b9050919050565b6000602082019050612976600083018461266c565b92915050565b6000612986612997565b90506129928282612b2e565b919050565b6000604051905090565b600067ffffffffffffffff8211156129bc576129bb612c06565b5b6129c582612c35565b9050602081019050919050565b600067ffffffffffffffff8211156129ed576129ec612c06565b5b6129f682612c35565b9050602081019050919050565b600081519050919050565b600081519050919050565b600082825260208201905092915050565b600082825260208201905092915050565b600081905092915050565b6000612a5182612a90565b9050919050565b60008115159050919050565b60007fffffffff0000000000000000000000000000000000000000000000000000000082169050919050565b600073ffffffffffffffffffffffffffffffffffffffff82169050919050565b6000819050919050565b82818337600083830152505050565b60005b83811015612ae7578082015181840152602081019050612acc565b83811115612af6576000848401525b50505050565b60006002820490506001821680612b1457607f821691505b60208210811415612b2857612b27612bd7565b5b50919050565b612b3782612c35565b810181811067ffffffffffffffff82111715612b5657612b55612c06565b5b80604052505050565b6000612b6a82612ab0565b91507fffffffffffffffffffffffffffffffffffffffffffffffffffffffffffffffff821415612b9d57612b9c612ba8565b5b600182019050919050565b7f4e487b7100000000000000000000000000000000000000000000000000000000600052601160045260246000fd5b7f4e487b7100000000000000000000000000000000000000000000000000000000600052602260045260246000fd5b7f4e487b7100000000000000000000000000000000000000000000000000000000600052604160045260246000fd5b6000601f19601f8301169050919050565b7f4552433732313a2063616c6c6572206973206e6f7420746f6b656e206f776e6560008201527f72206f7220617070726f76656400000000000000000000000000000000000000602082015250565b7f4552433732313a207472616e7366657220746f206e6f6e20455243373231526560008201527f63656976657220696d706c656d656e7465720000000000000000000000000000602082015250565b7f4f776e61626c653a206e6577206f776e657220697320746865207a65726f206160008201527f6464726573730000000000000000000000000000000000000000000000000000602082015250565b7f4552433732313a207472616e736665722066726f6d20696e636f72726563742060008201527f6f776e6572000000000000000000000000000000000000000000000000000000602082015250565b7f4552433732313a20746f6b656e20616c7265616479206d696e74656400000000600082015250565b7f4552433732313a207472616e7366657220746f20746865207a65726f2061646460008201527f7265737300000000000000000000000000000000000000000000000000000000602082015250565b7f4552433732313a20617070726f766520746f2063616c6c657200000000000000600082015250565b7f4552433732313a2061646472657373207a65726f206973206e6f74206120766160008201527f6c6964206f776e65720000000000000000000000000000000000000000000000602082015250565b7f45524337323155524953746f726167653a2055524920736574206f66206e6f6e60008201527f6578697374656e7420746f6b656e000000000000000000000000000000000000602082015250565b7f4552433732313a206d696e7420746f20746865207a65726f2061646472657373600082015250565b7f546f6b656e20646f6573206e6f742065786973742e0000000000000000000000600082015250565b7f4f776e61626c653a2063616c6c6572206973206e6f7420746865206f776e6572600082015250565b7f4552433732313a20696e76616c696420746f6b656e2049440000000000000000600082015250565b7f4552433732313a20617070726f76616c20746f2063757272656e74206f776e6560008201527f7200000000000000000000000000000000000000000000000000000000000000602082015250565b7f4552433732313a20617070726f76652063616c6c6572206973206e6f7420746f60008201527f6b656e206f776e6572206f7220617070726f76656420666f7220616c6c000000602082015250565b61300c81612a46565b811461301757600080fd5b50565b61302381612a58565b811461302e57600080fd5b50565b61303a81612a64565b811461304557600080fd5b50565b61305181612ab0565b811461305c57600080fd5b5056fea264697066735822122017dc91b76db4fa262fd5c45d97bf807b4dd86d0798960908508bb53e0f083a4764736f6c63430008010033",
  "immutableReferences": {},
  "source": "// SPDX-License-Identifier: MIT\r\npragma solidity ^0.8.1;\r\n\r\nimport \"@openzeppelin/contracts/token/ERC721/extensions/ERC721URIStorage.sol\";\r\nimport \"@openzeppelin/contracts/access/Ownable.sol\";\r\n\r\ncontract MyNFT is ERC721URIStorage, Ownable {\r\n    uint256 public nextTokenId;\r\n    address public admin;\r\n\r\n    // NFT   \r\n    event Minted(address recipient, uint256 tokenId, string tokenURI);\r\n\r\n    constructor() ERC721(\"MyNFT\", \"MNFT\") {}\r\n\r\n    //    \r\n    function mint(address recipient, string memory _tokenURI) external onlyOwner {\r\n        uint256 tokenId = nextTokenId;\r\n        nextTokenId++;\r\n        _mint(recipient, tokenId);\r\n        _setTokenURI(tokenId, _tokenURI);\r\n        \r\n        //   \r\n        emit Minted(recipient, tokenId, _tokenURI);\r\n    }\r\n\r\n    //    \r\n    function tokenExists(uint256 tokenId) public view returns (bool) {\r\n        try this.ownerOf(tokenId) returns (address owner) {\r\n            return owner != address(0);\r\n        } catch {\r\n            return false;\r\n        }\r\n    }\r\n\r\n    //  URI  \r\n    function tokenURI(uint256 tokenId) public view override returns (string memory) {\r\n        require(tokenExists(tokenId), \"Token does not exist.\");\r\n        return super.tokenURI(tokenId);\r\n    }\r\n}\r\n",
  "sourcePath": "C:\\Users\\SSAFY\\Desktop\\  (3)\\S11P21C103\\blockchain\\NFT\\contracts\\MyNFT.sol",
  "compiler": {
    "name": "solc",
    "version": "0.8.1+commit.df193b15.Emscripten.clang"
  },
  "schemaVersion": "3.4.16",
  "updatedAt": "2024-09-27T04:47:11.055Z",
  "networkType": "ethereum",
  "devdoc": {
    "kind": "dev",
    "methods": {
      "approve(address,uint256)": {
        "details": "See {IERC721-approve}."
      },
      "balanceOf(address)": {
        "details": "See {IERC721-balanceOf}."
      },
      "getApproved(uint256)": {
        "details": "See {IERC721-getApproved}."
      },
      "isApprovedForAll(address,address)": {
        "details": "See {IERC721-isApprovedForAll}."
      },
      "name()": {
        "details": "See {IERC721Metadata-name}."
      },
      "owner()": {
        "details": "Returns the address of the current owner."
      },
      "ownerOf(uint256)": {
        "details": "See {IERC721-ownerOf}."
      },
      "renounceOwnership()": {
        "details": "Leaves the contract without owner. It will not be possible to call `onlyOwner` functions. Can only be called by the current owner. NOTE: Renouncing ownership will leave the contract without an owner, thereby disabling any functionality that is only available to the owner."
      },
      "safeTransferFrom(address,address,uint256)": {
        "details": "See {IERC721-safeTransferFrom}."
      },
      "safeTransferFrom(address,address,uint256,bytes)": {
        "details": "See {IERC721-safeTransferFrom}."
      },
      "setApprovalForAll(address,bool)": {
        "details": "See {IERC721-setApprovalForAll}."
      },
      "supportsInterface(bytes4)": {
        "details": "See {IERC165-supportsInterface}"
      },
      "symbol()": {
        "details": "See {IERC721Metadata-symbol}."
      },
      "tokenURI(uint256)": {
        "details": "See {IERC721Metadata-tokenURI}."
      },
      "transferFrom(address,address,uint256)": {
        "details": "See {IERC721-transferFrom}."
      },
      "transferOwnership(address)": {
        "details": "Transfers ownership of the contract to a new account (`newOwner`). Can only be called by the current owner."
      }
    },
    "version": 1
  },
  "userdoc": {
    "kind": "user",
    "methods": {},
    "version": 1
  }
}